{"abi":[{"type":"constructor","inputs":[],"stateMutability":"nonpayable"},{"type":"function","name":"ADMIN_ROLE","inputs":[],"outputs":[{"name":"","type":"bytes32","internalType":"bytes32"}],"stateMutability":"view"},{"type":"function","name":"DEFAULT_ADMIN_ROLE","inputs":[],"outputs":[{"name":"","type":"bytes32","internalType":"bytes32"}],"stateMutability":"view"},{"type":"function","name":"EDITOR_ROLE","inputs":[],"outputs":[{"name":"","type":"bytes32","internalType":"bytes32"}],"stateMutability":"view"},{"type":"function","name":"REGISTRAR_ROLE","inputs":[],"outputs":[{"name":"","type":"bytes32","internalType":"bytes32"}],"stateMutability":"view"},{"type":"function","name":"VIEWER_ROLE","inputs":[],"outputs":[{"name":"","type":"bytes32","internalType":"bytes32"}],"stateMutability":"view"},{"type":"function","name":"addCrime","inputs":[{"name":"_recordId","type":"uint256","internalType":"uint256"},{"name":"_description","type":"string","internalType":"string"},{"name":"_ipfsHash","type":"string","internalType":"string"}],"outputs":[],"stateMutability":"nonpayable"},{"type":"function","name":"addPoliceAuthority","inputs":[{"name":"_authority","type":"address","internalType":"address"},{"name":"_name","type":"string","internalType":"string"},{"name":"_badgeNumber","type":"string","internalType":"string"}],"outputs":[],"stateMutability":"nonpayable"},{"type":"function","name":"assignRegistrarRole","inputs":[{"name":"registrar","type":"address","internalType":"address"}],"outputs":[],"stateMutability":"nonpayable"},{"type":"function","name":"changePoliceAuthorityStatus","inputs":[{"name":"_authority","type":"address","internalType":"address"},{"name":"_isActive","type":"bool","internalType":"bool"}],"outputs":[],"stateMutability":"nonpayable"},{"type":"function","name":"crimes","inputs":[{"name":"","type":"uint256","internalType":"uint256"}],"outputs":[{"name":"id","type":"uint256","internalType":"uint256"},{"name":"description","type":"string","internalType":"string"},{"name":"ipfsHash","type":"string","internalType":"string"}],"stateMutability":"view"},{"type":"function","name":"deactivateRecord","inputs":[{"name":"_recordId","type":"uint256","internalType":"uint256"}],"outputs":[],"stateMutability":"nonpayable"},{"type":"function","name":"deactivatedRecords","inputs":[{"name":"","type":"uint256","internalType":"uint256"}],"outputs":[{"name":"","type":"bool","internalType":"bool"}],"stateMutability":"view"},{"type":"function","name":"getRecord","inputs":[{"name":"_recordId","type":"uint256","internalType":"uint256"}],"outputs":[{"name":"","type":"tuple","internalType":"struct CriminalRecordSystem.CriminalRecord","components":[{"name":"id","type":"uint256","internalType":"uint256"},{"name":"crimeIds","type":"uint256[]","internalType":"uint256[]"},{"name":"criminal","type":"address","internalType":"address"}]}],"stateMutability":"view"},{"type":"function","name":"getRoleAdmin","inputs":[{"name":"role","type":"bytes32","internalType":"bytes32"}],"outputs":[{"name":"","type":"bytes32","internalType":"bytes32"}],"stateMutability":"view"},{"type":"function","name":"grantRole","inputs":[{"name":"role","type":"bytes32","internalType":"bytes32"},{"name":"account","type":"address","internalType":"address"}],"outputs":[],"stateMutability":"nonpayable"},{"type":"function","name":"hasRole","inputs":[{"name":"role","type":"bytes32","internalType":"bytes32"},{"name":"account","type":"address","internalType":"address"}],"outputs":[{"name":"","type":"bool","internalType":"bool"}],"stateMutability":"view"},{"type":"function","name":"policeAuthorities","inputs":[{"name":"","type":"address","internalType":"address"}],"outputs":[{"name":"authorityAddress","type":"address","internalType":"address"},{"name":"name","type":"string","internalType":"string"},{"name":"badgeNumber","type":"string","internalType":"string"},{"name":"isActive","type":"bool","internalType":"bool"}],"stateMutability":"view"},{"type":"function","name":"records","inputs":[{"name":"","type":"uint256","internalType":"uint256"}],"outputs":[{"name":"id","type":"uint256","internalType":"uint256"},{"name":"criminal","type":"address","internalType":"address"}],"stateMutability":"view"},{"type":"function","name":"registerCriminal","inputs":[{"name":"_criminal","type":"address","internalType":"address"}],"outputs":[],"stateMutability":"nonpayable"},{"type":"function","name":"registeredCriminals","inputs":[{"name":"","type":"address","internalType":"address"}],"outputs":[{"name":"","type":"bool","internalType":"bool"}],"stateMutability":"view"},{"type":"function","name":"renounceRole","inputs":[{"name":"role","type":"bytes32","internalType":"bytes32"},{"name":"callerConfirmation","type":"address","internalType":"address"}],"outputs":[],"stateMutability":"nonpayable"},{"type":"function","name":"revokeRole","inputs":[{"name":"role","type":"bytes32","internalType":"bytes32"},{"name":"account","type":"address","internalType":"address"}],"outputs":[],"stateMutability":"nonpayable"},{"type":"function","name":"supportsInterface","inputs":[{"name":"interfaceId","type":"bytes4","internalType":"bytes4"}],"outputs":[{"name":"","type":"bool","internalType":"bool"}],"stateMutability":"view"},{"type":"function","name":"updateCriminal","inputs":[{"name":"_recordId","type":"uint256","internalType":"uint256"},{"name":"_newCriminal","type":"address","internalType":"address"}],"outputs":[],"stateMutability":"nonpayable"},{"type":"event","name":"CrimeAdded","inputs":[{"name":"crimeId","type":"uint256","indexed":true,"internalType":"uint256"},{"name":"recordId","type":"uint256","indexed":true,"internalType":"uint256"},{"name":"ipfsHash","type":"string","indexed":false,"internalType":"string"}],"anonymous":false},{"type":"event","name":"CriminalRecordDeactivated","inputs":[{"name":"recordId","type":"uint256","indexed":true,"internalType":"uint256"}],"anonymous":false},{"type":"event","name":"CriminalRecordUpdated","inputs":[{"name":"recordId","type":"uint256","indexed":true,"internalType":"uint256"},{"name":"newCriminal","type":"address","indexed":false,"internalType":"address"}],"anonymous":false},{"type":"event","name":"CriminalRegistered","inputs":[{"name":"id","type":"uint256","indexed":true,"internalType":"uint256"},{"name":"criminal","type":"address","indexed":true,"internalType":"address"}],"anonymous":false},{"type":"event","name":"PoliceAuthorityAdded","inputs":[{"name":"authorityAddress","type":"address","indexed":true,"internalType":"address"},{"name":"name","type":"string","indexed":false,"internalType":"string"},{"name":"badgeNumber","type":"string","indexed":false,"internalType":"string"}],"anonymous":false},{"type":"event","name":"PoliceAuthorityStatusChanged","inputs":[{"name":"authorityAddress","type":"address","indexed":true,"internalType":"address"},{"name":"isActive","type":"bool","indexed":false,"internalType":"bool"}],"anonymous":false},{"type":"event","name":"RoleAdminChanged","inputs":[{"name":"role","type":"bytes32","indexed":true,"internalType":"bytes32"},{"name":"previousAdminRole","type":"bytes32","indexed":true,"internalType":"bytes32"},{"name":"newAdminRole","type":"bytes32","indexed":true,"internalType":"bytes32"}],"anonymous":false},{"type":"event","name":"RoleGranted","inputs":[{"name":"role","type":"bytes32","indexed":true,"internalType":"bytes32"},{"name":"account","type":"address","indexed":true,"internalType":"address"},{"name":"sender","type":"address","indexed":true,"internalType":"address"}],"anonymous":false},{"type":"event","name":"RoleRevoked","inputs":[{"name":"role","type":"bytes32","indexed":true,"internalType":"bytes32"},{"name":"account","type":"address","indexed":true,"internalType":"address"},{"name":"sender","type":"address","indexed":true,"internalType":"address"}],"anonymous":false},{"type":"error","name":"AccessControlBadConfirmation","inputs":[]},{"type":"error","name":"AccessControlUnauthorizedAccount","inputs":[{"name":"account","type":"address","internalType":"address"},{"name":"neededRole","type":"bytes32","internalType":"bytes32"}]},{"type":"error","name":"ReentrancyGuardReentrantCall","inputs":[]}],"bytecode":{"object":"0x6080604052348015600e575f5ffd5b5060018055601b5f336020565b5060c6565b5f828152602081815260408083206001600160a01b038516845290915281205460ff1660bd575f838152602081815260408083206001600160a01b03861684529091529020805460ff1916600117905560763390565b6001600160a01b0316826001600160a01b0316847f2f8788117e7eff1d82e926ec794901d17c78024a50270940304540a733656f0d60405160405180910390a450600160c0565b505f5b92915050565b61168e806100d35f395ff3fe608060405234801561000f575f5ffd5b5060043610610153575f3560e01c80637484bce8116100bf578063a853211a11610079578063a853211a14610380578063b87536d7146103a7578063d547741f146103ba578063d7ca8090146103cd578063ed767afa146103e0578063f68e9553146103f3575f5ffd5b80637484bce8146102f657806375b238fc14610309578063776c846914610330578063801cf9721461035357806391d1485414610366578063a217fddf14610379575f5ffd5b80631b176709116101105780631b1767091461020b578063248a9ca31461022d5780632f2ff15d1461025d578063344610671461027057806336568abe146102bc57806350219eaf146102cf575f5ffd5b806301ffc9a71461015757806302da1b9c1461017f57806303e9e609146101a15780630cdefa30146101c15780630dcb3c97146101e357806319c1833f146101f8575b5f5ffd5b61016a610165366004611146565b610407565b60405190151581526020015b60405180910390f35b61016a61018d366004611174565b60096020525f908152604090205460ff1681565b6101b46101af366004611174565b61043d565b604051610176919061118b565b6101d46101cf366004611174565b6104f5565b6040516101769392919061122d565b6101f66101f1366004611300565b610623565b005b6101f6610206366004611174565b6107f1565b61016a610219366004611388565b60076020525f908152604090205460ff1681565b61024f61023b366004611174565b5f9081526020819052604090206001015490565b604051908152602001610176565b6101f661026b3660046113a1565b6108e9565b61029f61027e366004611174565b60046020525f9081526040902080546002909101546001600160a01b031682565b604080519283526001600160a01b03909116602083015201610176565b6101f66102ca3660046113a1565b61090d565b61024f7f4e8c8e9ca39468bb90c81b80f979119441019fdac7cbbbd930e0a604f8777d1d81565b6101f6610304366004611388565b610945565b61024f7fa49807205ce4d355092ef5a8a18f56e8913cf4a201fbe287825b095693c2177581565b61034361033e366004611388565b610ab0565b60405161017694939291906113cb565b6101f6610361366004611414565b610bf1565b61016a6103743660046113a1565b610cbe565b61024f5f81565b61024f7f21d1167972f621f75904fb065136bc8b53c7ba1c60ccd3a7758fbee465851e9c81565b6101f66103b536600461144d565b610ce6565b6101f66103c83660046113a1565b610de6565b6101f66103db366004611388565b610e0a565b6101f66103ee3660046113a1565b610e6d565b61024f5f5160206116395f395f51905f5281565b5f6001600160e01b03198216637965db0b60e01b148061043757506301ffc9a760e01b6001600160e01b03198316145b92915050565b61046860405180606001604052805f8152602001606081526020015f6001600160a01b031681525090565b5f82815260046020908152604091829020825160608101845281548152600182018054855181860281018601909652808652919492938581019392908301828280156104d157602002820191905f5260205f20905b8154815260200190600101908083116104bd575b5050509183525050600291909101546001600160a01b031660209091015292915050565b60056020525f90815260409020805460018201805491929161051690611483565b80601f016020809104026020016040519081016040528092919081815260200182805461054290611483565b801561058d5780601f106105645761010080835404028352916020019161058d565b820191905f5260205f20905b81548152906001019060200180831161057057829003601f168201915b5050505050908060020180546105a290611483565b80601f01602080910402602001604051908101604052809291908181526020018280546105ce90611483565b80156106195780601f106105f057610100808354040283529160200191610619565b820191905f5260205f20905b8154815290600101906020018083116105fc57829003601f168201915b5050505050905083565b5f5160206116395f395f51905f5261063a81610f81565b610642610f8e565b5f8411801561065357506002548411155b6106785760405162461bcd60e51b815260040161066f906114bb565b60405180910390fd5b60088260405161068891906114e6565b9081526040519081900360200190205460ff16156106e15760405162461bcd60e51b815260206004820152601660248201527510dc9a5b5948185b1c9958591e481c9958dbdc99195960521b604482015260640161066f565b60038054905f6106f0836114fc565b90915550506003546040805160608101825282815260208082018781528284018790525f85815260059092529290208151815591519091906001820190610737908261156b565b506040820151600282019061074c908261156b565b5050505f85815260046020908152604080832060019081018054808301825590855292909320909101839055516008906107879086906114e6565b908152604051908190036020018120805492151560ff1990931692909217909155859082907f6e574b49a445f40a31820b814667e0113564c9d637d0e2a2e382ed6a98a05408906107d9908790611626565b60405180910390a3506107eb60018055565b50505050565b7f21d1167972f621f75904fb065136bc8b53c7ba1c60ccd3a7758fbee465851e9c61081b81610f81565b5f8211801561082c57506002548211155b6108485760405162461bcd60e51b815260040161066f906114bb565b5f8281526009602052604090205460ff16156108a65760405162461bcd60e51b815260206004820152601a60248201527f5265636f726420616c7265616479206465616374697661746564000000000000604482015260640161066f565b5f82815260096020526040808220805460ff191660011790555183917f9b785e7e86bcefd662948be9e6cfcc584adbfa4dba2d873f21dd910d81651e5291a25050565b5f8281526020819052604090206001015461090381610f81565b6107eb8383610fb8565b6001600160a01b03811633146109365760405163334bd91960e11b815260040160405180910390fd5b6109408282611047565b505050565b5f5160206116395f395f51905f5261095c81610f81565b610964610f8e565b6001600160a01b0382165f9081526007602052604090205460ff16156109cc5760405162461bcd60e51b815260206004820152601b60248201527f4372696d696e616c20616c726561647920726567697374657265640000000000604482015260640161066f565b60028054905f6109db836114fc565b90915550506002546040805160608101825282815281515f808252602080830185528084019283526001600160a01b0388168486015285825260048152939020825181559051805192938493610a3792600185019201906110e9565b5060409182015160029190910180546001600160a01b0319166001600160a01b0392831617905585165f8181526007602052828120805460ff191660011790559151909184917fa4e9a355de3b6a043c6ed4de75bd10c58956fa043e6bb0b72abb3dab12357c489190a35050610aac60018055565b5050565b60066020525f9081526040902080546001820180546001600160a01b039092169291610adb90611483565b80601f0160208091040260200160405190810160405280929190818152602001828054610b0790611483565b8015610b525780601f10610b2957610100808354040283529160200191610b52565b820191905f5260205f20905b815481529060010190602001808311610b3557829003601f168201915b505050505090806002018054610b6790611483565b80601f0160208091040260200160405190810160405280929190818152602001828054610b9390611483565b8015610bde5780601f10610bb557610100808354040283529160200191610bde565b820191905f5260205f20905b815481529060010190602001808311610bc157829003601f168201915b5050506003909301549192505060ff1684565b5f610bfb81610f81565b6001600160a01b038381165f9081526006602052604090205416610c615760405162461bcd60e51b815260206004820152601860248201527f417574686f7269747920646f6573206e6f742065786973740000000000000000604482015260640161066f565b6001600160a01b0383165f908152600660205260409020600301805460ff19168315801591909117909155610ca7576109405f5160206116395f395f51905f52846108e9565b6109405f5160206116395f395f51905f5284610de6565b5f918252602082815260408084206001600160a01b0393909316845291905290205460ff1690565b5f610cf081610f81565b6001600160a01b038416610d385760405162461bcd60e51b815260206004820152600f60248201526e496e76616c6964206164647265737360881b604482015260640161066f565b604080516080810182526001600160a01b0386811680835260208084018881528486018890526001606086018190525f938452600690925294909120835181546001600160a01b031916931692909217825592519192909190820190610d9e908261156b565b5060408201516002820190610db3908261156b565b50606091909101516003909101805460ff19169115159190911790556107eb5f5160206116395f395f51905f52856108e9565b5f82815260208190526040902060010154610e0081610f81565b6107eb8383611047565b5f610e1481610f81565b610e1e5f33610cbe565b610e565760405162461bcd60e51b81526020600482015260096024820152682737ba1030b236b4b760b91b604482015260640161066f565b610aac5f5160206116395f395f51905f52836108e9565b7f21d1167972f621f75904fb065136bc8b53c7ba1c60ccd3a7758fbee465851e9c610e9781610f81565b5f83118015610ea857506002548311155b610ec45760405162461bcd60e51b815260040161066f906114bb565b6001600160a01b038216610f1a5760405162461bcd60e51b815260206004820152601860248201527f496e76616c6964206372696d696e616c20616464726573730000000000000000604482015260640161066f565b5f8381526004602090815260409182902060020180546001600160a01b0319166001600160a01b038616908117909155915191825284917fd0e686f2d8fd1f3dfd04ec0fea0ec934671d9d6eac31edfe797ab7f74ebb16fd910160405180910390a2505050565b610f8b81336110b0565b50565b600260015403610fb157604051633ee5aeb560e01b815260040160405180910390fd5b6002600155565b5f610fc38383610cbe565b611040575f838152602081815260408083206001600160a01b03861684529091529020805460ff19166001179055610ff83390565b6001600160a01b0316826001600160a01b0316847f2f8788117e7eff1d82e926ec794901d17c78024a50270940304540a733656f0d60405160405180910390a4506001610437565b505f610437565b5f6110528383610cbe565b15611040575f838152602081815260408083206001600160a01b0386168085529252808320805460ff1916905551339286917ff6391f5c32d9c69d2a47ea670b442974b53935d1edc7fd64eb21e047a839171b9190a4506001610437565b6110ba8282610cbe565b610aac5760405163e2517d3f60e01b81526001600160a01b03821660048201526024810183905260440161066f565b828054828255905f5260205f20908101928215611122579160200282015b82811115611122578251825591602001919060010190611107565b5061112e929150611132565b5090565b5b8082111561112e575f8155600101611133565b5f60208284031215611156575f5ffd5b81356001600160e01b03198116811461116d575f5ffd5b9392505050565b5f60208284031215611184575f5ffd5b5035919050565b602080825282518282015282810151606060408401528051608084018190525f929190910190829060a08501905b808310156111dc57835182526020820191506020840193506001830192506111b9565b50604095909501516001600160a01b031660609490940193909352509192915050565b5f81518084528060208401602086015e5f602082860101526020601f19601f83011685010191505092915050565b838152606060208201525f61124560608301856111ff565b828103604084015261125781856111ff565b9695505050505050565b634e487b7160e01b5f52604160045260245ffd5b5f82601f830112611284575f5ffd5b813567ffffffffffffffff81111561129e5761129e611261565b604051601f8201601f19908116603f0116810167ffffffffffffffff811182821017156112cd576112cd611261565b6040528181528382016020018510156112e4575f5ffd5b816020850160208301375f918101602001919091529392505050565b5f5f5f60608486031215611312575f5ffd5b83359250602084013567ffffffffffffffff81111561132f575f5ffd5b61133b86828701611275565b925050604084013567ffffffffffffffff811115611357575f5ffd5b61136386828701611275565b9150509250925092565b80356001600160a01b0381168114611383575f5ffd5b919050565b5f60208284031215611398575f5ffd5b61116d8261136d565b5f5f604083850312156113b2575f5ffd5b823591506113c26020840161136d565b90509250929050565b6001600160a01b03851681526080602082018190525f906113ee908301866111ff565b828103604084015261140081866111ff565b915050821515606083015295945050505050565b5f5f60408385031215611425575f5ffd5b61142e8361136d565b915060208301358015158114611442575f5ffd5b809150509250929050565b5f5f5f6060848603121561145f575f5ffd5b6114688461136d565b9250602084013567ffffffffffffffff81111561132f575f5ffd5b600181811c9082168061149757607f821691505b6020821081036114b557634e487b7160e01b5f52602260045260245ffd5b50919050565b602080825260119082015270125b9d985b1a59081c9958dbdc99081251607a1b604082015260600190565b5f82518060208501845e5f920191825250919050565b5f6001820161151957634e487b7160e01b5f52601160045260245ffd5b5060010190565b601f82111561094057805f5260205f20601f840160051c810160208510156115455750805b601f840160051c820191505b81811015611564575f8155600101611551565b5050505050565b815167ffffffffffffffff81111561158557611585611261565b611599816115938454611483565b84611520565b6020601f8211600181146115cb575f83156115b45750848201515b5f19600385901b1c1916600184901b178455611564565b5f84815260208120601f198516915b828110156115fa57878501518255602094850194600190920191016115da565b508482101561161757868401515f19600387901b60f8161c191681555b50505050600190811b01905550565b602081525f61116d60208301846111ff56feedcc084d3dcd65a1f7f23c65c46722faca6953d28e43150a467cf43e5c309238a264697066735822122018105905c56dfa74b86b0d05f18ccf6a9016fe910a254b0ceced755e7c853da264736f6c634300081c0033","linkReferences":{}},"methodIdentifiers":{"ADMIN_ROLE()":"75b238fc","DEFAULT_ADMIN_ROLE()":"a217fddf","EDITOR_ROLE()":"a853211a","REGISTRAR_ROLE()":"f68e9553","VIEWER_ROLE()":"50219eaf","addCrime(uint256,string,string)":"0dcb3c97","addPoliceAuthority(address,string,string)":"b87536d7","assignRegistrarRole(address)":"d7ca8090","changePoliceAuthorityStatus(address,bool)":"801cf972","crimes(uint256)":"0cdefa30","deactivateRecord(uint256)":"19c1833f","deactivatedRecords(uint256)":"02da1b9c","getRecord(uint256)":"03e9e609","getRoleAdmin(bytes32)":"248a9ca3","grantRole(bytes32,address)":"2f2ff15d","hasRole(bytes32,address)":"91d14854","policeAuthorities(address)":"776c8469","records(uint256)":"34461067","registerCriminal(address)":"7484bce8","registeredCriminals(address)":"1b176709","renounceRole(bytes32,address)":"36568abe","revokeRole(bytes32,address)":"d547741f","supportsInterface(bytes4)":"01ffc9a7","updateCriminal(uint256,address)":"ed767afa"},"id":26}